:1005DE007580FFC2B5D2B6D2B4AF80C2B4EF20E7F9
:0105EE00F616
:0105EF0022E9
:10060200AE071205DEC2B5C2B68E80D2B4C2B42223
:10061200AE071205DED2B5C2B68E80D2B4C2B42203
:0C064000ED600343074043078002060200
:10059C00AE07AC03ED6003430640430680AF061282
:0705AC000602AF0402061273
:050003007F010206026E
:050662007F0F020602FB
:050667007F0C020602F9
:100533008F21AA03A9050521EAC4540F2430FB1215
:0D054300059CEA540F2430FBAF2102059CFB
:1004E4008B278A288929120640AB27AA28A9291212
:1004F400058360130529E5297002052814F91205FE
:0805040083FF12061280E222BF
:1005CA007F381206027F0C1206027F061206027F8D
:0405DA000102060212
:08050C00C180C181C182C183DD
:1003A00020B2117F147E001205B320B202C20220D7
:1003B000B23C80FB20B0117F147E001205B320B048
:1003C00002C20020B02880FB20B1117F147E0012F1
:1003D00005B320B102C20120B11480FB20B30F7F0E
:0F03E000147E001205B320B302C20330B3FD2216
:1005140007130000050502000008080000000000A1
:06052400000000011201BD
:1005B3007D737C00ED1D70011C144C70F7EF1F70F0
:0605C300011E144E70EA57
:0105C900220F
:10055000EF1FAA0670011E4A600FE4FDEDC394FA76
:0905600050EE000000000D80F3D4
:01056900226F
:0A065800EF1F70011E144E70F72210
:1005F000E4FDB2A37F467E001206580DBDB4F3D2CF
:01060000A356
:0106010022D6
:10043D00EE7042EF24F9601B24F7601E24FB60214F
:10044D0024F5602424E06027243D70297510007583
:10045D00110322751000751107227510007511100A
:10046D002275100075111522751000751120227559
:06047D0010007511402281
:10062200D2AF758901758CDCE4F58AD2A9D28C220D
:1003EF001206221205CA1204B612056AE5127035FA
:1003FF001202CBAF177E00EF65117002E510601F80
:10040F00E511540FB5071EE510C4F854F0C868FE87
:10041F00E511C4540F487C00B5180AECB506061256
:0E042F00064C1205F07F327E0012055080BB95
:03000B00020339B4
:10033900C0E0C0F0C083C082C0D075D000758CDC2D
:10034900758A000513E513B40A087513000514121C
:1003590003A0E514B40A057514000515E515B40ADA
:10036900057515000516E516B40605751600051779
:10037900E517B40A057517000518E518B4060575DB
:1003890018000519E519B41803751900D0D0D082E1
:07039900D083D0F0D0E03268
:08052A00021C0000021A00008F
:10048300E51264016005E512B40211120622E4FFCD
:100493007E077813E4F608DEFCE4F512E512700833
:1004A300E51B30E003751202051BE51B7002051AFC
:0204B300D20075
:0104B5002224
:1001D000E512640170777F01FE12000E051DE51D1A
:1001E0007002051C6407451C7004F51CF51DE51C18
:1001F000705BE51D24FE601B14602314602B1460EB
:100200003314603B24057045AF1DAE1C12000E7FF9
:10021000038035AF1DAE1C12000E7F07802AAF1D74
:10022000AE1C12000E7F10801FAF1DAE1C12000E00
:100230007F158014AF1DAE1C12000E7F208009AF09
:100240001DAE1C12000E7F407E0012043DD2012222
:10025000E51264017072E51D151D7002151CE51D87
:10026000451C7005F51C751D05E51C705BE51D241E
:10027000FE601B14602314602B14603314603B2455
:10028000057045AF1DAE1C12000E7F038035AF1DFB
:10029000AE1C12000E7F07802AAF1DAE1C12000E8E
:1002A0007F10801FAF1DAE1C12000E7F158014AF93
:1002B0001DAE1C12000E7F208009AF1DAE1C120067
:0B02C0000E7F407E0012043DD202229F
:0E063200E512B402037512011201D0D20322A8
:10056A002000030204832001030201D020020302B7
:09057A0002502003031206322294
:10014900556E636F6D70726F6D6973696E670020AC
:1001590020202020206279204C656F6E002020200D
:100169002020336D696E20202020002020202020AF
:10017900376D696E2020202000202020202031307A
:100189006D696E20202000202020202031356D69E6
:100199006E20202000202020202032306D696E2022
:1001A900202000202020202034306D696E2020205E
:1001B90000596573002A2A2A2A2A2A2A454E442ADE
:0701C9002A2A2A2A2A2A0033
:1004B6007521FF7522017523497524FF7525017580
:1004C60026581205CAAB21AA22A923E4FDFF12046D
:0E04D600E4AB24AA25A9267D01E4FF0204E47C
:1002CB00E4FF74132FF8E62430FE74082FF8A6060B
:1002DB000FBF06EEAB087D017F0C12059CAB097DB1
:1002EB00017F0B12059C7B3A7D017F0A12059CABAB
:1002FB000A7D017F0912059CAB0B7D017F0812055E
:10030B009C7B3A7D017F0712059CAB0C7D017F0620
:10031B0012059CAB0D7D017F0512059C7B3A7D017F
:0E032B007F0412059CAB197D017F0202053391
:04000E008E218F228E
:100012007BFF7A0179BAE4FD7F0D1204E4E52160E9
:10002200030200BCE52224FE6027146038146049F4
:1000320014605A14606B240560030200BC7BFF7AD3
:10004200017966E4FDFF1204E47BFF7A0179748092
:10005200627BFF7A017974E4FDFF1204E47BFF7A8C
:10006200017982804E7BFF7A017982E4FDFF1204DE
:10007200E47BFF7A017990803A7BFF7A017990E400
:10008200FDFF1204E47BFF7A01799E80267BFF7AD2
:1000920001799EE4FDFF1204E47BFF7A0179AC80D2
:1000A200127BFF7A0179ACE4FDFF1204E47BFF7A54
:0A00B2000179667D01E4FF1204E409
:0100BC002221
:0C064C007BFF7A0179BEE4FDFF0204E4AC
:030000000200BD3E
:0C00BD00787FE4F6D8FD7581290201046B
:10058300BB010689828A83E0225002E722BBFE0276
:09059300E32289828A83E49322A9
:1000C9000203EFE493A3F8E493A34003F68001F25B
:1000D90008DFF48029E493A3F85407240CC8C33338
:1000E900C4540F4420C8834004F456800146F6DF07
:1000F900E4800B010204081020408090050CE47E86
:10010900019360BCA3FF543F30E509541FFEE493FB
:10011900A360010ECF54C025E060A840B8E493A3C2
:10012900FAE493A3F8E493A3C8C582C8CAC583CAED
:10013900F0A3C8C582C8CAC583CADFE9DEE780BEA5
:0105320000C8
:00000001FF
